{
  "transactions": [
    {
      "hash": "0xcea92af09dfc6cf9c24d19fe1774c809d0f7461e3c9a5f3bd60bde78e981e756",
      "transactionType": "CREATE",
      "contractName": "MinusCalculator",
      "contractAddress": "0x4b8f52c4b299a4b084241f26714b9f24c8ff6e55",
      "function": null,
      "arguments": null,
      "transaction": {
        "from": "0x4262aa56b97f776c075883b6077719ca3b997023",
        "gas": "0x1f3d3",
        "value": "0x0",
        "input": "0x6080604052348015600e575f80fd5b5060d080601a5f395ff3fe6080604052348015600e575f80fd5b50600436106026575f3560e01c8063f4f3bdc114602a575b5f80fd5b60396035366004605d565b604b565b60405190815260200160405180910390f35b5f60548284607c565b90505b92915050565b5f8060408385031215606d575f80fd5b50508035926020909101359150565b81810381811115605757634e487b7160e01b5f52601160045260245ffdfea26469706673582212207adae10de5c7ab20c4bc3b03955e167c823c69ec90fd54e25a44aa904fbb993864736f6c634300081a0033",
        "nonce": "0x33",
        "chainId": "0xaa36a7"
      },
      "additionalContracts": [],
      "isFixedGasLimit": false
    },
    {
      "hash": "0x0f05d25d1c183503f4db1f8cb24767c843919f4ae8ed4a32754ee0c78c9640b7",
      "transactionType": "CALL",
      "contractName": null,
      "contractAddress": "0x21bb080556e6024591b25b6ca8c2f8466c64a943",
      "function": "setMinusCalculator(address)",
      "arguments": [
        "0x4B8F52C4B299a4B084241F26714B9f24C8ff6e55"
      ],
      "transaction": {
        "from": "0x4262aa56b97f776c075883b6077719ca3b997023",
        "to": "0x21bb080556e6024591b25b6ca8c2f8466c64a943",
        "gas": "0xed93",
        "value": "0x0",
        "input": "0x2931eb320000000000000000000000004b8f52c4b299a4b084241f26714b9f24c8ff6e55",
        "nonce": "0x34",
        "chainId": "0xaa36a7"
      },
      "additionalContracts": [],
      "isFixedGasLimit": false
    }
  ],
  "receipts": [
    {
      "status": "0x1",
      "cumulativeGasUsed": "0x9c7242",
      "logs": [],
      "logsBloom": "0x00000000000000000000000000000000000000000000000000000000000000000000000000000000000000000000000000000000000000000000000000000000000000000000000000000000000000000000000000000000000000000000000000000000000000000000000000000000000000000000000000000000000000000000000000000000000000000000000000000000000000000000000000000000000000000000000000000000000000000000000000000000000000000000000000000000000000000000000000000000000000000000000000000000000000000000000000000000000000000000000000000000000000000000000000000000",
      "type": "0x2",
      "transactionHash": "0xcea92af09dfc6cf9c24d19fe1774c809d0f7461e3c9a5f3bd60bde78e981e756",
      "transactionIndex": "0x41",
      "blockHash": "0x1187b8a86eee7ca63ecd013dedd7a40b76d8ab0a53ec19f66e5f3d90c39c876d",
      "blockNumber": "0x612dae",
      "gasUsed": "0x1807b",
      "effectiveGasPrice": "0x4c05e9366",
      "from": "0x4262aa56b97f776c075883b6077719ca3b997023",
      "to": null,
      "contractAddress": "0x4b8f52c4b299a4b084241f26714b9f24c8ff6e55"
    },
    {
      "status": "0x1",
      "cumulativeGasUsed": "0x9d1e42",
      "logs": [],
      "logsBloom": "0x00000000000000000000000000000000000000000000000000000000000000000000000000000000000000000000000000000000000000000000000000000000000000000000000000000000000000000000000000000000000000000000000000000000000000000000000000000000000000000000000000000000000000000000000000000000000000000000000000000000000000000000000000000000000000000000000000000000000000000000000000000000000000000000000000000000000000000000000000000000000000000000000000000000000000000000000000000000000000000000000000000000000000000000000000000000",
      "type": "0x2",
      "transactionHash": "0x0f05d25d1c183503f4db1f8cb24767c843919f4ae8ed4a32754ee0c78c9640b7",
      "transactionIndex": "0x42",
      "blockHash": "0x1187b8a86eee7ca63ecd013dedd7a40b76d8ab0a53ec19f66e5f3d90c39c876d",
      "blockNumber": "0x612dae",
      "gasUsed": "0xac00",
      "effectiveGasPrice": "0x4c05e9366",
      "from": "0x4262aa56b97f776c075883b6077719ca3b997023",
      "to": "0x21bb080556e6024591b25b6ca8c2f8466c64a943",
      "contractAddress": null
    }
  ],
  "libraries": [],
  "pending": [],
  "returns": {},
  "timestamp": 1721840969,
  "chain": 11155111,
  "commit": "b6f87df"
}