{
  "transactions": [
    {
      "hash": "0x2e831e1e3e32435ef199baea35df197873a98107aef6634af26a6b00784ca738",
      "transactionType": "CREATE",
      "contractName": "MultiplicationCalculator",
      "contractAddress": "0x5e40f56d7940c2a0a742e1ca1bbdf8ac87272158",
      "function": null,
      "arguments": null,
      "transaction": {
        "from": "0x4262aa56b97f776c075883b6077719ca3b997023",
        "gas": "0x1f836",
        "value": "0x0",
        "input": "0x6080604052348015600e575f80fd5b5060d480601a5f395ff3fe6080604052348015600e575f80fd5b50600436106026575f3560e01c8063165c4a1614602a575b5f80fd5b60396035366004605d565b604b565b60405190815260200160405180910390f35b5f60548284607c565b90505b92915050565b5f8060408385031215606d575f80fd5b50508035926020909101359150565b8082028115828204841417605757634e487b7160e01b5f52601160045260245ffdfea2646970667358221220f3df4036dd36cba00841dc3599d99c279471ab507e73b12ca8225f09db027fcc64736f6c634300081a0033",
        "nonce": "0x36",
        "chainId": "0xaa36a7"
      },
      "additionalContracts": [],
      "isFixedGasLimit": false
    },
    {
      "hash": "0xa4ce9bf45d40df62a85300509506c101ce8430a51765153760bcff1210d405e3",
      "transactionType": "CALL",
      "contractName": null,
      "contractAddress": "0xb782d969d1f97edaba4e32e7d6ad400482d1da66",
      "function": "setMultiplicationCalculator(address)",
      "arguments": [
        "0x5e40F56d7940C2A0A742E1cA1bBdF8aC87272158"
      ],
      "transaction": {
        "from": "0x4262aa56b97f776c075883b6077719ca3b997023",
        "to": "0xb782d969d1f97edaba4e32e7d6ad400482d1da66",
        "gas": "0xed93",
        "value": "0x0",
        "input": "0x218fefdc0000000000000000000000005e40f56d7940c2a0a742e1ca1bbdf8ac87272158",
        "nonce": "0x37",
        "chainId": "0xaa36a7"
      },
      "additionalContracts": [],
      "isFixedGasLimit": false
    }
  ],
  "receipts": [
    {
      "status": "0x1",
      "cumulativeGasUsed": "0x8298f9",
      "logs": [],
      "logsBloom": "0x00000000000000000000000000000000000000000000000000000000000000000000000000000000000000000000000000000000000000000000000000000000000000000000000000000000000000000000000000000000000000000000000000000000000000000000000000000000000000000000000000000000000000000000000000000000000000000000000000000000000000000000000000000000000000000000000000000000000000000000000000000000000000000000000000000000000000000000000000000000000000000000000000000000000000000000000000000000000000000000000000000000000000000000000000000000",
      "type": "0x2",
      "transactionHash": "0x2e831e1e3e32435ef199baea35df197873a98107aef6634af26a6b00784ca738",
      "transactionIndex": "0x35",
      "blockHash": "0x1077765a30a8687987ef1ce37bc40ec3d438a2589b295969f0b88ddd6bc76e9e",
      "blockNumber": "0x612dd0",
      "gasUsed": "0x183db",
      "effectiveGasPrice": "0x5a56b13f2",
      "from": "0x4262aa56b97f776c075883b6077719ca3b997023",
      "to": null,
      "contractAddress": "0x5e40f56d7940c2a0a742e1ca1bbdf8ac87272158"
    },
    {
      "status": "0x1",
      "cumulativeGasUsed": "0x8344f9",
      "logs": [],
      "logsBloom": "0x00000000000000000000000000000000000000000000000000000000000000000000000000000000000000000000000000000000000000000000000000000000000000000000000000000000000000000000000000000000000000000000000000000000000000000000000000000000000000000000000000000000000000000000000000000000000000000000000000000000000000000000000000000000000000000000000000000000000000000000000000000000000000000000000000000000000000000000000000000000000000000000000000000000000000000000000000000000000000000000000000000000000000000000000000000000",
      "type": "0x2",
      "transactionHash": "0xa4ce9bf45d40df62a85300509506c101ce8430a51765153760bcff1210d405e3",
      "transactionIndex": "0x36",
      "blockHash": "0x1077765a30a8687987ef1ce37bc40ec3d438a2589b295969f0b88ddd6bc76e9e",
      "blockNumber": "0x612dd0",
      "gasUsed": "0xac00",
      "effectiveGasPrice": "0x5a56b13f2",
      "from": "0x4262aa56b97f776c075883b6077719ca3b997023",
      "to": "0xb782d969d1f97edaba4e32e7d6ad400482d1da66",
      "contractAddress": null
    }
  ],
  "libraries": [],
  "pending": [],
  "returns": {},
  "timestamp": 1721841460,
  "chain": 11155111,
  "commit": "6913509"
}