{
  "transactions": [
    {
      "hash": "0xd1c097bc653e5f44013e8496abb4b19e793c455f411a268f80c4aa08e0013e44",
      "transactionType": "CREATE",
      "contractName": "DivisionCalculator",
      "contractAddress": "0xcd748f9b98a1003a925f0869043f7cd02f31a060",
      "function": null,
      "arguments": null,
      "transaction": {
        "from": "0x4262aa56b97f776c075883b6077719ca3b997023",
        "gas": "0x1f1a1",
        "value": "0x0",
        "input": "0x6080604052348015600e575f80fd5b5060ce80601a5f395ff3fe6080604052348015600e575f80fd5b50600436106026575f3560e01c8063f88e9fbf14602a575b5f80fd5b60396035366004605b565b604b565b60405190815260200160405180910390f35b5f60548284607a565b9392505050565b5f8060408385031215606b575f80fd5b50508035926020909101359150565b5f82609357634e487b7160e01b5f52601260045260245ffd5b50049056fea2646970667358221220893921dc89186c5698b4cbdf2757ddefc8f6215abf53938d0adbdee3422a3e0a64736f6c634300081a0033",
        "nonce": "0x4b",
        "chainId": "0xaa36a7"
      },
      "additionalContracts": [],
      "isFixedGasLimit": false
    },
    {
      "hash": "0x58d6d1b26f083888ad66e67d59cc02d4706847f45f005d5846c481e52c57642e",
      "transactionType": "CALL",
      "contractName": null,
      "contractAddress": "0x7e0caddd3d42a00fd3a896d0382ffd57d71faac0",
      "function": "setDivisionCalculator(address)",
      "arguments": [
        "0xCd748f9b98A1003a925f0869043f7Cd02F31A060"
      ],
      "transaction": {
        "from": "0x4262aa56b97f776c075883b6077719ca3b997023",
        "to": "0x7e0caddd3d42a00fd3a896d0382ffd57d71faac0",
        "gas": "0xed82",
        "value": "0x0",
        "input": "0x30980f17000000000000000000000000cd748f9b98a1003a925f0869043f7cd02f31a060",
        "nonce": "0x4c",
        "chainId": "0xaa36a7"
      },
      "additionalContracts": [],
      "isFixedGasLimit": false
    }
  ],
  "receipts": [
    {
      "status": "0x1",
      "cumulativeGasUsed": "0x44684e",
      "logs": [],
      "logsBloom": "0x00000000000000000000000000000000000000000000000000000000000000000000000000000000000000000000000000000000000000000000000000000000000000000000000000000000000000000000000000000000000000000000000000000000000000000000000000000000000000000000000000000000000000000000000000000000000000000000000000000000000000000000000000000000000000000000000000000000000000000000000000000000000000000000000000000000000000000000000000000000000000000000000000000000000000000000000000000000000000000000000000000000000000000000000000000000",
      "type": "0x2",
      "transactionHash": "0xd1c097bc653e5f44013e8496abb4b19e793c455f411a268f80c4aa08e0013e44",
      "transactionIndex": "0x33",
      "blockHash": "0x6512381d436fd2866da67a7232b2f66d4af910d0c2657c8b89558565a787b219",
      "blockNumber": "0x613e9c",
      "gasUsed": "0x17ecb",
      "effectiveGasPrice": "0x7e80244f5",
      "from": "0x4262aa56b97f776c075883b6077719ca3b997023",
      "to": null,
      "contractAddress": "0xcd748f9b98a1003a925f0869043f7cd02f31a060"
    },
    {
      "status": "0x1",
      "cumulativeGasUsed": "0x451442",
      "logs": [],
      "logsBloom": "0x00000000000000000000000000000000000000000000000000000000000000000000000000000000000000000000000000000000000000000000000000000000000000000000000000000000000000000000000000000000000000000000000000000000000000000000000000000000000000000000000000000000000000000000000000000000000000000000000000000000000000000000000000000000000000000000000000000000000000000000000000000000000000000000000000000000000000000000000000000000000000000000000000000000000000000000000000000000000000000000000000000000000000000000000000000000",
      "type": "0x2",
      "transactionHash": "0x58d6d1b26f083888ad66e67d59cc02d4706847f45f005d5846c481e52c57642e",
      "transactionIndex": "0x34",
      "blockHash": "0x6512381d436fd2866da67a7232b2f66d4af910d0c2657c8b89558565a787b219",
      "blockNumber": "0x613e9c",
      "gasUsed": "0xabf4",
      "effectiveGasPrice": "0x7e80244f5",
      "from": "0x4262aa56b97f776c075883b6077719ca3b997023",
      "to": "0x7e0caddd3d42a00fd3a896d0382ffd57d71faac0",
      "contractAddress": null
    }
  ],
  "libraries": [],
  "pending": [],
  "returns": {},
  "timestamp": 1721905875,
  "chain": 11155111,
  "commit": "995899b"
}