{
  "transactions": [
    {
      "hash": "0xa3fcc3e45599533625fd22fb6a114a9a4dc2eebc263377089b2e82594420b71c",
      "transactionType": "CREATE",
      "contractName": "DivisionCalculator",
      "contractAddress": "0x09f1368b99466988fb0093a13bc607102ba068ef",
      "function": null,
      "arguments": null,
      "transaction": {
        "from": "0x4262aa56b97f776c075883b6077719ca3b997023",
        "gas": "0x1f1a1",
        "value": "0x0",
        "input": "0x6080604052348015600e575f80fd5b5060ce80601a5f395ff3fe6080604052348015600e575f80fd5b50600436106026575f3560e01c8063f88e9fbf14602a575b5f80fd5b60396035366004605b565b604b565b60405190815260200160405180910390f35b5f60548284607a565b9392505050565b5f8060408385031215606b575f80fd5b50508035926020909101359150565b5f82609357634e487b7160e01b5f52601260045260245ffd5b50049056fea26469706673582212207a4be91b1c8be66dc46e2be7444414159e2b3f078c0b8ea44e5684fe01e0d47064736f6c634300081a0033",
        "nonce": "0x41",
        "chainId": "0xaa36a7"
      },
      "additionalContracts": [],
      "isFixedGasLimit": false
    },
    {
      "hash": "0x84b147649f8d946780b2f63a9b98515db323aabecc9f45c27597e02607cd21e6",
      "transactionType": "CALL",
      "contractName": null,
      "contractAddress": "0x8c2debfb89b80adf5c1b558c900a5ca226c542ec",
      "function": "setDivisionCalculator(address)",
      "arguments": [
        "0x09F1368b99466988fB0093a13Bc607102BA068eF"
      ],
      "transaction": {
        "from": "0x4262aa56b97f776c075883b6077719ca3b997023",
        "to": "0x8c2debfb89b80adf5c1b558c900a5ca226c542ec",
        "gas": "0xed82",
        "value": "0x0",
        "input": "0x30980f1700000000000000000000000009f1368b99466988fb0093a13bc607102ba068ef",
        "nonce": "0x42",
        "chainId": "0xaa36a7"
      },
      "additionalContracts": [],
      "isFixedGasLimit": false
    }
  ],
  "receipts": [
    {
      "status": "0x1",
      "cumulativeGasUsed": "0xaeb214",
      "logs": [],
      "logsBloom": "0x00000000000000000000000000000000000000000000000000000000000000000000000000000000000000000000000000000000000000000000000000000000000000000000000000000000000000000000000000000000000000000000000000000000000000000000000000000000000000000000000000000000000000000000000000000000000000000000000000000000000000000000000000000000000000000000000000000000000000000000000000000000000000000000000000000000000000000000000000000000000000000000000000000000000000000000000000000000000000000000000000000000000000000000000000000000",
      "type": "0x2",
      "transactionHash": "0xa3fcc3e45599533625fd22fb6a114a9a4dc2eebc263377089b2e82594420b71c",
      "transactionIndex": "0x65",
      "blockHash": "0x99efc99a75b918c48f68aff5a09c5dcdf1fce93ab15461c49d68c050643a471f",
      "blockNumber": "0x613d91",
      "gasUsed": "0x17ecb",
      "effectiveGasPrice": "0xc209fdcbe",
      "from": "0x4262aa56b97f776c075883b6077719ca3b997023",
      "to": null,
      "contractAddress": "0x09f1368b99466988fb0093a13bc607102ba068ef"
    },
    {
      "status": "0x1",
      "cumulativeGasUsed": "0xaf5e08",
      "logs": [],
      "logsBloom": "0x00000000000000000000000000000000000000000000000000000000000000000000000000000000000000000000000000000000000000000000000000000000000000000000000000000000000000000000000000000000000000000000000000000000000000000000000000000000000000000000000000000000000000000000000000000000000000000000000000000000000000000000000000000000000000000000000000000000000000000000000000000000000000000000000000000000000000000000000000000000000000000000000000000000000000000000000000000000000000000000000000000000000000000000000000000000",
      "type": "0x2",
      "transactionHash": "0x84b147649f8d946780b2f63a9b98515db323aabecc9f45c27597e02607cd21e6",
      "transactionIndex": "0x66",
      "blockHash": "0x99efc99a75b918c48f68aff5a09c5dcdf1fce93ab15461c49d68c050643a471f",
      "blockNumber": "0x613d91",
      "gasUsed": "0xabf4",
      "effectiveGasPrice": "0xc209fdcbe",
      "from": "0x4262aa56b97f776c075883b6077719ca3b997023",
      "to": "0x8c2debfb89b80adf5c1b558c900a5ca226c542ec",
      "contractAddress": null
    }
  ],
  "libraries": [],
  "pending": [],
  "returns": {},
  "timestamp": 1721901808,
  "chain": 11155111,
  "commit": "995899b"
}