{
  "transactions": [
    {
      "hash": "0x1a396f673660752c83db2b84de113345c9266a8afe10c42391ecf1a8c754b4eb",
      "transactionType": "CREATE",
      "contractName": "DivisionCalculator",
      "contractAddress": "0xc4550478b57fdccf3377e824f336469f529be56d",
      "function": null,
      "arguments": null,
      "transaction": {
        "from": "0x4262aa56b97f776c075883b6077719ca3b997023",
        "gas": "0x1f1a1",
        "value": "0x0",
        "input": "0x6080604052348015600e575f80fd5b5060ce80601a5f395ff3fe6080604052348015600e575f80fd5b50600436106026575f3560e01c8063f88e9fbf14602a575b5f80fd5b60396035366004605b565b604b565b60405190815260200160405180910390f35b5f60548284607a565b9392505050565b5f8060408385031215606b575f80fd5b50508035926020909101359150565b5f82609357634e487b7160e01b5f52601260045260245ffd5b50049056fea2646970667358221220893921dc89186c5698b4cbdf2757ddefc8f6215abf53938d0adbdee3422a3e0a64736f6c634300081a0033",
        "nonce": "0x47",
        "chainId": "0xaa36a7"
      },
      "additionalContracts": [],
      "isFixedGasLimit": false
    },
    {
      "hash": "0x971074fcc7420770ab7c60f7c527b17fe1fd31ab51de8c5b35101a3f08e56585",
      "transactionType": "CALL",
      "contractName": null,
      "contractAddress": "0x8c2debfb89b80adf5c1b558c900a5ca226c542ec",
      "function": "setDivisionCalculator(address)",
      "arguments": [
        "0xC4550478b57fdccF3377E824f336469f529bE56d"
      ],
      "transaction": {
        "from": "0x4262aa56b97f776c075883b6077719ca3b997023",
        "to": "0x8c2debfb89b80adf5c1b558c900a5ca226c542ec",
        "gas": "0x914f",
        "value": "0x0",
        "input": "0x30980f17000000000000000000000000c4550478b57fdccf3377e824f336469f529be56d",
        "nonce": "0x48",
        "chainId": "0xaa36a7"
      },
      "additionalContracts": [],
      "isFixedGasLimit": false
    }
  ],
  "receipts": [
    {
      "status": "0x1",
      "cumulativeGasUsed": "0x70b79e",
      "logs": [],
      "logsBloom": "0x00000000000000000000000000000000000000000000000000000000000000000000000000000000000000000000000000000000000000000000000000000000000000000000000000000000000000000000000000000000000000000000000000000000000000000000000000000000000000000000000000000000000000000000000000000000000000000000000000000000000000000000000000000000000000000000000000000000000000000000000000000000000000000000000000000000000000000000000000000000000000000000000000000000000000000000000000000000000000000000000000000000000000000000000000000000",
      "type": "0x2",
      "transactionHash": "0x1a396f673660752c83db2b84de113345c9266a8afe10c42391ecf1a8c754b4eb",
      "transactionIndex": "0x3a",
      "blockHash": "0x3587e141454e18967d321a20d37fb3440e8767773412d26b90e89c39c77f8996",
      "blockNumber": "0x613e35",
      "gasUsed": "0x17ecb",
      "effectiveGasPrice": "0x58d9181e8",
      "from": "0x4262aa56b97f776c075883b6077719ca3b997023",
      "to": null,
      "contractAddress": "0xc4550478b57fdccf3377e824f336469f529be56d"
    },
    {
      "status": "0x1",
      "cumulativeGasUsed": "0x7120d2",
      "logs": [],
      "logsBloom": "0x00000000000000000000000000000000000000000000000000000000000000000000000000000000000000000000000000000000000000000000000000000000000000000000000000000000000000000000000000000000000000000000000000000000000000000000000000000000000000000000000000000000000000000000000000000000000000000000000000000000000000000000000000000000000000000000000000000000000000000000000000000000000000000000000000000000000000000000000000000000000000000000000000000000000000000000000000000000000000000000000000000000000000000000000000000000",
      "type": "0x2",
      "transactionHash": "0x971074fcc7420770ab7c60f7c527b17fe1fd31ab51de8c5b35101a3f08e56585",
      "transactionIndex": "0x3b",
      "blockHash": "0x3587e141454e18967d321a20d37fb3440e8767773412d26b90e89c39c77f8996",
      "blockNumber": "0x613e35",
      "gasUsed": "0x6934",
      "effectiveGasPrice": "0x58d9181e8",
      "from": "0x4262aa56b97f776c075883b6077719ca3b997023",
      "to": "0x8c2debfb89b80adf5c1b558c900a5ca226c542ec",
      "contractAddress": null
    }
  ],
  "libraries": [],
  "pending": [],
  "returns": {},
  "timestamp": 1721904257,
  "chain": 11155111,
  "commit": "995899b"
}