{
  "transactions": [
    {
      "hash": "0x5223975ff382396550e680ad2b1f7ab8f9c6bf718a1645bdc34a0968dd2dd6d2",
      "transactionType": "CREATE",
      "contractName": "DivisionCalculator",
      "contractAddress": "0xafd07e1d911b9ef1eada9b165e61885217b876b5",
      "function": null,
      "arguments": null,
      "transaction": {
        "from": "0x4262aa56b97f776c075883b6077719ca3b997023",
        "gas": "0x1f1a1",
        "value": "0x0",
        "input": "0x6080604052348015600e575f80fd5b5060ce80601a5f395ff3fe6080604052348015600e575f80fd5b50600436106026575f3560e01c8063f88e9fbf14602a575b5f80fd5b60396035366004605b565b604b565b60405190815260200160405180910390f35b5f60548284607a565b9392505050565b5f8060408385031215606b575f80fd5b50508035926020909101359150565b5f82609357634e487b7160e01b5f52601260045260245ffd5b50049056fea26469706673582212207a4be91b1c8be66dc46e2be7444414159e2b3f078c0b8ea44e5684fe01e0d47064736f6c634300081a0033",
        "nonce": "0x45",
        "chainId": "0xaa36a7"
      },
      "additionalContracts": [],
      "isFixedGasLimit": false
    },
    {
      "hash": "0x81501cbd80ece1b2b54431f87ae7893f3b6e5d76ea544eb2d947fce80044bf5c",
      "transactionType": "CALL",
      "contractName": null,
      "contractAddress": "0x8c2debfb89b80adf5c1b558c900a5ca226c542ec",
      "function": "setDivisionCalculator(address)",
      "arguments": [
        "0xAFD07E1d911B9Ef1eADA9B165e61885217B876B5"
      ],
      "transaction": {
        "from": "0x4262aa56b97f776c075883b6077719ca3b997023",
        "to": "0x8c2debfb89b80adf5c1b558c900a5ca226c542ec",
        "gas": "0x914f",
        "value": "0x0",
        "input": "0x30980f17000000000000000000000000afd07e1d911b9ef1eada9b165e61885217b876b5",
        "nonce": "0x46",
        "chainId": "0xaa36a7"
      },
      "additionalContracts": [],
      "isFixedGasLimit": false
    }
  ],
  "receipts": [
    {
      "status": "0x1",
      "cumulativeGasUsed": "0xca7c5d",
      "logs": [],
      "logsBloom": "0x00000000000000000000000000000000000000000000000000000000000000000000000000000000000000000000000000000000000000000000000000000000000000000000000000000000000000000000000000000000000000000000000000000000000000000000000000000000000000000000000000000000000000000000000000000000000000000000000000000000000000000000000000000000000000000000000000000000000000000000000000000000000000000000000000000000000000000000000000000000000000000000000000000000000000000000000000000000000000000000000000000000000000000000000000000000",
      "type": "0x2",
      "transactionHash": "0x5223975ff382396550e680ad2b1f7ab8f9c6bf718a1645bdc34a0968dd2dd6d2",
      "transactionIndex": "0x62",
      "blockHash": "0x337b5c0460c029197b9fbbe1d5a1a17ebaf858da1afb86f28b8bcaabd9fc227b",
      "blockNumber": "0x613db9",
      "gasUsed": "0x17ecb",
      "effectiveGasPrice": "0x85e87b8c9",
      "from": "0x4262aa56b97f776c075883b6077719ca3b997023",
      "to": null,
      "contractAddress": "0xafd07e1d911b9ef1eada9b165e61885217b876b5"
    },
    {
      "status": "0x1",
      "cumulativeGasUsed": "0xcae591",
      "logs": [],
      "logsBloom": "0x00000000000000000000000000000000000000000000000000000000000000000000000000000000000000000000000000000000000000000000000000000000000000000000000000000000000000000000000000000000000000000000000000000000000000000000000000000000000000000000000000000000000000000000000000000000000000000000000000000000000000000000000000000000000000000000000000000000000000000000000000000000000000000000000000000000000000000000000000000000000000000000000000000000000000000000000000000000000000000000000000000000000000000000000000000000",
      "type": "0x2",
      "transactionHash": "0x81501cbd80ece1b2b54431f87ae7893f3b6e5d76ea544eb2d947fce80044bf5c",
      "transactionIndex": "0x63",
      "blockHash": "0x337b5c0460c029197b9fbbe1d5a1a17ebaf858da1afb86f28b8bcaabd9fc227b",
      "blockNumber": "0x613db9",
      "gasUsed": "0x6934",
      "effectiveGasPrice": "0x85e87b8c9",
      "from": "0x4262aa56b97f776c075883b6077719ca3b997023",
      "to": "0x8c2debfb89b80adf5c1b558c900a5ca226c542ec",
      "contractAddress": null
    }
  ],
  "libraries": [],
  "pending": [],
  "returns": {},
  "timestamp": 1721902423,
  "chain": 11155111,
  "commit": "995899b"
}